{
  "_format": "hh-sol-artifact-1",
  "contractName": "MultiSigWallet",
  "sourceName": "contracts/MultiSigWallet.sol",
  "abi": [
    {
      "inputs": [
        {
          "internalType": "address[]",
          "name": "_owners",
          "type": "address[]"
        },
        {
          "internalType": "uint256",
          "name": "_required",
          "type": "uint256"
        }
      ],
      "stateMutability": "nonpayable",
      "type": "constructor"
    },
    {
      "anonymous": false,
      "inputs": [
        {
          "indexed": true,
          "internalType": "address",
          "name": "owner",
          "type": "address"
        },
        {
          "indexed": true,
          "internalType": "uint256",
          "name": "txId",
          "type": "uint256"
        }
      ],
      "name": "Approve",
      "type": "event"
    },
    {
      "anonymous": false,
      "inputs": [
        {
          "indexed": true,
          "internalType": "address",
          "name": "sender",
          "type": "address"
        },
        {
          "indexed": false,
          "internalType": "uint256",
          "name": "amount",
          "type": "uint256"
        }
      ],
      "name": "Deposit",
      "type": "event"
    },
    {
      "anonymous": false,
      "inputs": [
        {
          "indexed": true,
          "internalType": "uint256",
          "name": "txId",
          "type": "uint256"
        }
      ],
      "name": "Execute",
      "type": "event"
    },
    {
      "anonymous": false,
      "inputs": [
        {
          "indexed": true,
          "internalType": "address",
          "name": "owner",
          "type": "address"
        },
        {
          "indexed": true,
          "internalType": "uint256",
          "name": "txId",
          "type": "uint256"
        }
      ],
      "name": "Revoke",
      "type": "event"
    },
    {
      "anonymous": false,
      "inputs": [
        {
          "indexed": true,
          "internalType": "uint256",
          "name": "txId",
          "type": "uint256"
        }
      ],
      "name": "Submit",
      "type": "event"
    },
    {
      "inputs": [
        {
          "internalType": "uint256",
          "name": "_txId",
          "type": "uint256"
        }
      ],
      "name": "approve",
      "outputs": [],
      "stateMutability": "nonpayable",
      "type": "function"
    },
    {
      "inputs": [
        {
          "internalType": "uint256",
          "name": "",
          "type": "uint256"
        },
        {
          "internalType": "address",
          "name": "",
          "type": "address"
        }
      ],
      "name": "approved",
      "outputs": [
        {
          "internalType": "bool",
          "name": "",
          "type": "bool"
        }
      ],
      "stateMutability": "view",
      "type": "function"
    },
    {
      "inputs": [
        {
          "internalType": "uint256",
          "name": "_txId",
          "type": "uint256"
        }
      ],
      "name": "execute",
      "outputs": [],
      "stateMutability": "nonpayable",
      "type": "function"
    },
    {
      "inputs": [
        {
          "internalType": "address",
          "name": "",
          "type": "address"
        }
      ],
      "name": "isOwner",
      "outputs": [
        {
          "internalType": "bool",
          "name": "",
          "type": "bool"
        }
      ],
      "stateMutability": "view",
      "type": "function"
    },
    {
      "inputs": [
        {
          "internalType": "uint256",
          "name": "",
          "type": "uint256"
        }
      ],
      "name": "owners",
      "outputs": [
        {
          "internalType": "address",
          "name": "",
          "type": "address"
        }
      ],
      "stateMutability": "view",
      "type": "function"
    },
    {
      "inputs": [],
      "name": "required",
      "outputs": [
        {
          "internalType": "uint256",
          "name": "",
          "type": "uint256"
        }
      ],
      "stateMutability": "view",
      "type": "function"
    },
    {
      "inputs": [
        {
          "internalType": "uint256",
          "name": "_txId",
          "type": "uint256"
        }
      ],
      "name": "revoke",
      "outputs": [],
      "stateMutability": "nonpayable",
      "type": "function"
    },
    {
      "inputs": [
        {
          "internalType": "address",
          "name": "_to",
          "type": "address"
        },
        {
          "internalType": "uint256",
          "name": "_value",
          "type": "uint256"
        },
        {
          "internalType": "bytes",
          "name": "_data",
          "type": "bytes"
        }
      ],
      "name": "submit",
      "outputs": [],
      "stateMutability": "nonpayable",
      "type": "function"
    },
    {
      "inputs": [
        {
          "internalType": "uint256",
          "name": "",
          "type": "uint256"
        }
      ],
      "name": "transactions",
      "outputs": [
        {
          "internalType": "address",
          "name": "to",
          "type": "address"
        },
        {
          "internalType": "uint256",
          "name": "value",
          "type": "uint256"
        },
        {
          "internalType": "bytes",
          "name": "data",
          "type": "bytes"
        },
        {
          "internalType": "bool",
          "name": "executed",
          "type": "bool"
        }
      ],
      "stateMutability": "view",
      "type": "function"
    },
    {
      "stateMutability": "payable",
      "type": "receive"
    }
  ],
  "bytecode": "0x60806040523480156200001157600080fd5b5060405162001f7638038062001f768339818101604052810190620000379190620003dc565b600080805490501162000081576040517f08c379a0000000000000000000000000000000000000000000000000000000008152600401620000789062000586565b60405180910390fd5b60008111801562000093575081518111155b620000d5576040517f08c379a0000000000000000000000000000000000000000000000000000000008152600401620000cc90620005ca565b60405180910390fd5b60005b8251811015620002fc5760008382815181106200011e577f4e487b7100000000000000000000000000000000000000000000000000000000600052603260045260246000fd5b60200260200101519050600073ffffffffffffffffffffffffffffffffffffffff168173ffffffffffffffffffffffffffffffffffffffff1614156200019b576040517f08c379a00000000000000000000000000000000000000000000000000000000081526004016200019290620005a8565b60405180910390fd5b600160008273ffffffffffffffffffffffffffffffffffffffff1673ffffffffffffffffffffffffffffffffffffffff16815260200190815260200160002060009054906101000a900460ff16156200022b576040517f08c379a0000000000000000000000000000000000000000000000000000000008152600401620002229062000564565b60405180910390fd5b60018060008373ffffffffffffffffffffffffffffffffffffffff1673ffffffffffffffffffffffffffffffffffffffff16815260200190815260200160002060006101000a81548160ff0219169083151502179055506000819080600181540180825580915050600190039060005260206000200160009091909190916101000a81548173ffffffffffffffffffffffffffffffffffffffff021916908373ffffffffffffffffffffffffffffffffffffffff160217905550508080620002f3906200069e565b915050620000d8565b508060028190555050506200077e565b6000620003236200031d8462000620565b620005ec565b905080838252602082019050828560208602820111156200034357600080fd5b60005b858110156200037757816200035c888262000381565b84526020840193506020830192505060018101905062000346565b5050509392505050565b60008151905062000392816200074a565b92915050565b600082601f830112620003aa57600080fd5b8151620003bc8482602086016200030c565b91505092915050565b600081519050620003d68162000764565b92915050565b60008060408385031215620003f057600080fd5b600083015167ffffffffffffffff8111156200040b57600080fd5b620004198582860162000398565b92505060206200042c85828601620003c5565b9150509250929050565b6000620004456010836200064f565b91507f6f776e6572206e6f7420756e69717565000000000000000000000000000000006000830152602082019050919050565b600062000487600f836200064f565b91507f6f776e65727320726571756972656400000000000000000000000000000000006000830152602082019050919050565b6000620004c9600d836200064f565b91507f696e76616c6964206f776e6572000000000000000000000000000000000000006000830152602082019050919050565b60006200050b6021836200064f565b91507f496e76616c6964207265717569726564206e756d626572206f66206f776e657260008301527f73000000000000000000000000000000000000000000000000000000000000006020830152604082019050919050565b600060208201905081810360008301526200057f8162000436565b9050919050565b60006020820190508181036000830152620005a18162000478565b9050919050565b60006020820190508181036000830152620005c381620004ba565b9050919050565b60006020820190508181036000830152620005e581620004fc565b9050919050565b6000604051905081810181811067ffffffffffffffff821117156200061657620006156200071b565b5b8060405250919050565b600067ffffffffffffffff8211156200063e576200063d6200071b565b5b602082029050602081019050919050565b600082825260208201905092915050565b60006200066d8262000674565b9050919050565b600073ffffffffffffffffffffffffffffffffffffffff82169050919050565b6000819050919050565b6000620006ab8262000694565b91507fffffffffffffffffffffffffffffffffffffffffffffffffffffffffffffffff821415620006e157620006e0620006ec565b5b600182019050919050565b7f4e487b7100000000000000000000000000000000000000000000000000000000600052601160045260246000fd5b7f4e487b7100000000000000000000000000000000000000000000000000000000600052604160045260246000fd5b620007558162000660565b81146200076157600080fd5b50565b6200076f8162000694565b81146200077b57600080fd5b50565b6117e8806200078e6000396000f3fe60806040526004361061008a5760003560e01c80638253951a116100595780638253951a146101b05780639ace38c2146101ed578063b759f9541461022d578063dc8452cd14610256578063fe0d94c114610281576100df565b8063025e7c27146100e457806314de327f1461012157806320c5429b1461014a5780632f54bf6e14610173576100df565b366100df573373ffffffffffffffffffffffffffffffffffffffff167fe1fffcc4923d04b559f4d29a8bfc6cda04eb5b0d3c460751c2402c5c5cc9109c346040516100d5919061152d565b60405180910390a2005b600080fd5b3480156100f057600080fd5b5061010b6004803603810190610106919061110a565b6102aa565b60405161011891906113eb565b60405180910390f35b34801561012d57600080fd5b506101486004803603810190610143919061109e565b6102e9565b005b34801561015657600080fd5b50610171600480360381019061016c919061110a565b6104f2565b005b34801561017f57600080fd5b5061019a60048036038101906101959190611075565b6107af565b6040516101a79190611452565b60405180910390f35b3480156101bc57600080fd5b506101d760048036038101906101d29190611133565b6107cf565b6040516101e49190611452565b60405180910390f35b3480156101f957600080fd5b50610214600480360381019061020f919061110a565b6107fe565b6040516102249493929190611406565b60405180910390f35b34801561023957600080fd5b50610254600480360381019061024f919061110a565b6108f3565b005b34801561026257600080fd5b5061026b610bb3565b604051610278919061152d565b60405180910390f35b34801561028d57600080fd5b506102a860048036038101906102a3919061110a565b610bb9565b005b600081815481106102ba57600080fd5b906000526020600020016000915054906101000a900473ffffffffffffffffffffffffffffffffffffffff1681565b600160003373ffffffffffffffffffffffffffffffffffffffff1673ffffffffffffffffffffffffffffffffffffffff16815260200190815260200160002060009054906101000a900460ff16610375576040517f08c379a000000000000000000000000000000000000000000000000000000000815260040161036c9061150d565b60405180910390fd5b600360405180608001604052808673ffffffffffffffffffffffffffffffffffffffff16815260200185815260200184848080601f016020809104026020016040519081016040528093929190818152602001838380828437600081840152601f19601f82011690508083019250505050505050815260200160001515815250908060018154018082558091505060019003906000526020600020906004020160009091909190915060008201518160000160006101000a81548173ffffffffffffffffffffffffffffffffffffffff021916908373ffffffffffffffffffffffffffffffffffffffff16021790555060208201518160010155604082015181600201908051906020019061048b929190610f5e565b5060608201518160030160006101000a81548160ff021916908315150217905550505060016003805490506104c091906115eb565b7f08324b3d745b914e3abd4ffbfead91e3b78391a98c173202129215ab933adfbe60405160405180910390a250505050565b600160003373ffffffffffffffffffffffffffffffffffffffff1673ffffffffffffffffffffffffffffffffffffffff16815260200190815260200160002060009054906101000a900460ff1661057e576040517f08c379a00000000000000000000000000000000000000000000000000000000081526004016105759061150d565b60405180910390fd5b8060038054905081106105c6576040517f08c379a00000000000000000000000000000000000000000000000000000000081526004016105bd906114ad565b60405180910390fd5b8160038181548110610601577f4e487b7100000000000000000000000000000000000000000000000000000000600052603260045260246000fd5b906000526020600020906004020160030160009054906101000a900460ff1615610660576040517f08c379a0000000000000000000000000000000000000000000000000000000008152600401610657906114ed565b60405180910390fd5b6004600084815260200190815260200160002060003373ffffffffffffffffffffffffffffffffffffffff1673ffffffffffffffffffffffffffffffffffffffff16815260200190815260200160002060009054906101000a900460ff166106fd576040517f08c379a00000000000000000000000000000000000000000000000000000000081526004016106f49061146d565b60405180910390fd5b60006004600085815260200190815260200160002060003373ffffffffffffffffffffffffffffffffffffffff1673ffffffffffffffffffffffffffffffffffffffff16815260200190815260200160002060006101000a81548160ff021916908315150217905550823373ffffffffffffffffffffffffffffffffffffffff167fec9ab91322523c899ede7830ec9bfc992b5981cdcc27b91162fb23de5791117b60405160405180910390a3505050565b60016020528060005260406000206000915054906101000a900460ff1681565b60046020528160005260406000206020528060005260406000206000915091509054906101000a900460ff1681565b6003818154811061080e57600080fd5b90600052602060002090600402016000915090508060000160009054906101000a900473ffffffffffffffffffffffffffffffffffffffff169080600101549080600201805461085d9061169a565b80601f01602080910402602001604051908101604052809291908181526020018280546108899061169a565b80156108d65780601f106108ab576101008083540402835291602001916108d6565b820191906000526020600020905b8154815290600101906020018083116108b957829003601f168201915b5050505050908060030160009054906101000a900460ff16905084565b600160003373ffffffffffffffffffffffffffffffffffffffff1673ffffffffffffffffffffffffffffffffffffffff16815260200190815260200160002060009054906101000a900460ff1661097f576040517f08c379a00000000000000000000000000000000000000000000000000000000081526004016109769061150d565b60405180910390fd5b8060038054905081106109c7576040517f08c379a00000000000000000000000000000000000000000000000000000000081526004016109be906114ad565b60405180910390fd5b816004600082815260200190815260200160002060003373ffffffffffffffffffffffffffffffffffffffff1673ffffffffffffffffffffffffffffffffffffffff16815260200190815260200160002060009054906101000a900460ff1615610a66576040517f08c379a0000000000000000000000000000000000000000000000000000000008152600401610a5d906114ed565b60405180910390fd5b8260038181548110610aa1577f4e487b7100000000000000000000000000000000000000000000000000000000600052603260045260246000fd5b906000526020600020906004020160030160009054906101000a900460ff1615610b00576040517f08c379a0000000000000000000000000000000000000000000000000000000008152600401610af7906114ed565b60405180910390fd5b60016004600086815260200190815260200160002060003373ffffffffffffffffffffffffffffffffffffffff1673ffffffffffffffffffffffffffffffffffffffff16815260200190815260200160002060006101000a81548160ff021916908315150217905550833373ffffffffffffffffffffffffffffffffffffffff167f90ec57f18fa7b15c6b8d5e4d1deb90796c74b2ff23d4d0cecad0cb42a96b312860405160405180910390a350505050565b60025481565b806003805490508110610c01576040517f08c379a0000000000000000000000000000000000000000000000000000000008152600401610bf8906114ad565b60405180910390fd5b8160038181548110610c3c577f4e487b7100000000000000000000000000000000000000000000000000000000600052603260045260246000fd5b906000526020600020906004020160030160009054906101000a900460ff1615610c9b576040517f08c379a0000000000000000000000000000000000000000000000000000000008152600401610c92906114ed565b60405180910390fd5b600254610ca784610e5e565b1015610ce8576040517f08c379a0000000000000000000000000000000000000000000000000000000008152600401610cdf906114cd565b60405180910390fd5b600060038481548110610d24577f4e487b7100000000000000000000000000000000000000000000000000000000600052603260045260246000fd5b9060005260206000209060040201905060018160030160006101000a81548160ff02191690831515021790555060008160000160009054906101000a900473ffffffffffffffffffffffffffffffffffffffff1673ffffffffffffffffffffffffffffffffffffffff16826001015483600201604051610da491906113d4565b60006040518083038185875af1925050503d8060008114610de1576040519150601f19603f3d011682016040523d82523d6000602084013e610de6565b606091505b5050905080610e2a576040517f08c379a0000000000000000000000000000000000000000000000000000000008152600401610e219061148d565b60405180910390fd5b847fddb556f1d2c1ec821e910b019d3685b229db152a0ecd517ca7e24b8bd713928960405160405180910390a25050505050565b6000805b600080549050811015610f5857600460008481526020019081526020016000206000808381548110610ebd577f4e487b7100000000000000000000000000000000000000000000000000000000600052603260045260246000fd5b9060005260206000200160009054906101000a900473ffffffffffffffffffffffffffffffffffffffff1673ffffffffffffffffffffffffffffffffffffffff1673ffffffffffffffffffffffffffffffffffffffff16815260200190815260200160002060009054906101000a900460ff1615610f4557600182610f429190611595565b91505b8080610f50906116cc565b915050610e62565b50919050565b828054610f6a9061169a565b90600052602060002090601f016020900481019282610f8c5760008555610fd3565b82601f10610fa557805160ff1916838001178555610fd3565b82800160010185558215610fd3579182015b82811115610fd2578251825591602001919060010190610fb7565b5b509050610fe09190610fe4565b5090565b5b80821115610ffd576000816000905550600101610fe5565b5090565b60008135905061101081611784565b92915050565b60008083601f84011261102857600080fd5b8235905067ffffffffffffffff81111561104157600080fd5b60208301915083600182028301111561105957600080fd5b9250929050565b60008135905061106f8161179b565b92915050565b60006020828403121561108757600080fd5b600061109584828501611001565b91505092915050565b600080600080606085870312156110b457600080fd5b60006110c287828801611001565b94505060206110d387828801611060565b935050604085013567ffffffffffffffff8111156110f057600080fd5b6110fc87828801611016565b925092505092959194509250565b60006020828403121561111c57600080fd5b600061112a84828501611060565b91505092915050565b6000806040838503121561114657600080fd5b600061115485828601611060565b925050602061116585828601611001565b9150509250929050565b6111788161161f565b82525050565b61118781611631565b82525050565b60006111988261155d565b6111a28185611568565b93506111b2818560208601611667565b6111bb81611773565b840191505092915050565b600081546111d38161169a565b6111dd8186611579565b945060018216600081146111f857600181146112095761123c565b60ff1983168652818601935061123c565b61121285611548565b60005b8381101561123457815481890152600182019150602081019050611215565b838801955050505b50505092915050565b6000611252600f83611584565b91507f7478206e6f7420617070726f76656400000000000000000000000000000000006000830152602082019050919050565b6000611292600983611584565b91507f7478206661696c656400000000000000000000000000000000000000000000006000830152602082019050919050565b60006112d2601183611584565b91507f747820646f6573206e6f742065786973740000000000000000000000000000006000830152602082019050919050565b6000611312601483611584565b91507f617070726f63616c73203c2072657175697265640000000000000000000000006000830152602082019050919050565b6000611352601383611584565b91507f747820616c726561647920617070726f766564000000000000000000000000006000830152602082019050919050565b6000611392600983611584565b91507f6e6f74206f776e657200000000000000000000000000000000000000000000006000830152602082019050919050565b6113ce8161165d565b82525050565b60006113e082846111c6565b915081905092915050565b6000602082019050611400600083018461116f565b92915050565b600060808201905061141b600083018761116f565b61142860208301866113c5565b818103604083015261143a818561118d565b9050611449606083018461117e565b95945050505050565b6000602082019050611467600083018461117e565b92915050565b6000602082019050818103600083015261148681611245565b9050919050565b600060208201905081810360008301526114a681611285565b9050919050565b600060208201905081810360008301526114c6816112c5565b9050919050565b600060208201905081810360008301526114e681611305565b9050919050565b6000602082019050818103600083015261150681611345565b9050919050565b6000602082019050818103600083015261152681611385565b9050919050565b600060208201905061154260008301846113c5565b92915050565b60008190508160005260206000209050919050565b600081519050919050565b600082825260208201905092915050565b600081905092915050565b600082825260208201905092915050565b60006115a08261165d565b91506115ab8361165d565b9250827fffffffffffffffffffffffffffffffffffffffffffffffffffffffffffffffff038211156115e0576115df611715565b5b828201905092915050565b60006115f68261165d565b91506116018361165d565b92508282101561161457611613611715565b5b828203905092915050565b600061162a8261163d565b9050919050565b60008115159050919050565b600073ffffffffffffffffffffffffffffffffffffffff82169050919050565b6000819050919050565b60005b8381101561168557808201518184015260208101905061166a565b83811115611694576000848401525b50505050565b600060028204905060018216806116b257607f821691505b602082108114156116c6576116c5611744565b5b50919050565b60006116d78261165d565b91507fffffffffffffffffffffffffffffffffffffffffffffffffffffffffffffffff82141561170a57611709611715565b5b600182019050919050565b7f4e487b7100000000000000000000000000000000000000000000000000000000600052601160045260246000fd5b7f4e487b7100000000000000000000000000000000000000000000000000000000600052602260045260246000fd5b6000601f19601f8301169050919050565b61178d8161161f565b811461179857600080fd5b50565b6117a48161165d565b81146117af57600080fd5b5056fea264697066735822122016f02ac9d6b35b3b3845144c486eec6942dc88ef211c00fe8af460c3a5849c6f64736f6c63430008000033",
  "linkReferences": {},
  "deployedLinkReferences": {}
}